:0A0000000C942A000C9400000C94EC
:10000A0000000C9400000C9400000C9400000C9466
:10001A0000000C9400000C9400000C9400000C9456
:10002A0000000C9400000C9400000C9400000C9446
:10003A0000000C9400000C9400000C9400000C9436
:10004A0000000C9400000C940000F894EE27ECBB1E
:10005A00F1E0FBBFEBBFE5BF8DE0A2E0BB27ED936C
:10006A008A95E9F780E094E0A0E6ED930197E9F735
:10007A00EFE5EDBFE4E0EEBFC0E6D1E00C94450049
:10008A0000E010E020E030E040E050E0EBE0EABBC6
:10009A00E0E0EBBBE8EBE7BBE0E0E8BBE4BBE5BBD9
:1000AA00E1BBE2BBE9BFE0E5EDB9E0E0EEB9C39838
:1000BA0040E050E04038E0E05E0724F41FD04F5F94
:1000CA005F4FF8CF40E050E04038E0E05E0724F4AC
:1000DA0015D041505040F8CF9A018901A02F06D07F
:1000EA00AAEFB0E00E948B00E2CFFFCFAA93E8818B
:1000FA00EFB9779BFECFEFB121960895A0E0F6DF26
:10010A00A42FF4DFAAE0B0E00C948B00109639F02B
:10011A0080ED97E00197F1F7A8951197C9F708952F
:00000001FF
