:100000000C94CE000C9464010C9469010C940000D3
:100010000C9400000C9400000C9400000C94000060
:100020000C9400000C9400000C9400000C94080147
:100030000C9400000C9438010C9400000C94000007
:100040000C9400000C9400000C9400000C94000030
:100050000C94000000000000000000000000000000
:100060004C6F6164696E672E2E2E20004C6F6164A8
:10007000696E672E2E2E200D0A002300566F6C74B9
:10008000616765203D2025322E32662000560056DD
:100090006F6C74616765203D2025322E32306620FA
:1000A000760D0A000D0A476574204020566F6C7467
:1000B0006167653A7E242020003E5573617274208A
:1000C0006D6F64653C000D0A566F6C746167652D39
:1000D0002D0D0A000D0A566F6C746167652B2B0D90
:1000E0000A000D0A2020202020202020205B2068EC
:1000F000656C70207C2047524F5550207C2056491B
:100100004557207C205354415254207C20422E30AD
:100110003D315D0D0A20000D0A20202020202020E6
:1001200020205B2068656C70207C2047524F555022
:10013000207C2056494557207C205354415254205E
:100140007C20412E303D315D0D0A20000D0A636F89
:100150006D6D616E64206E6F742066756F6E640DD8
:100160000A003E6B6579206D6F64653C000080C0BD
:100170002D4E414E000001002D4E414E00494E468D
:1001800000000100020054000A00040056000200B2
:1001900080016E010100870176010000F894EE27CE
:1001A000ECBBF1E0FBBFEBBFE5BF8DE0A2E0BB27FE
:1001B000ED938A95E9F780E094E0A0E6ED9301974E
:1001C000E9F7E2E8F1E085919591009761F0A5915A
:1001D000B59105901590BF01F00105900D92019722
:1001E000E1F7FB01F0CFEFE5EDBFE4E0EEBFC0E6E5
:1001F000D1E00C947301AA93E881E7B98BE18A9569
:10020000F1F7369A349BFECF349AE4B1F5B15AC077
:100210000E94DA071A930A931BB10CB1E12FEC711B
:1002200089F4E92D9394F0E0E05AFE4F0083E0E179
:10023000E91509F49924B394E0E1EB1519F4BB2412
:10024000689420F80991199149C01A93BB20F1F3E1
:10025000E82D8394F0E0E05AFE4F1081E0E1E815CC
:1002600009F48824F894BA947894E12F19910895A8
:100270000E94DA07CC2061F0CA94ED2DD394F0E00F
:10028000E059FE4FE081ECB9E0E1ED1509F4DD2421
:1002900025C0AA93E0E1EC15E9F3F894CC2011F421
:1002A0005D990DC0EA2DA394F0E0E059FE4FA881BE
:1002B000A083E0E1EA1509F4AA24C39402C0E8810E
:1002C000ECB97894219608950E94DA07F2013196EC
:1002D00004C00E94DA07F20131972F01E991EFBFC4
:1002E000F991E99118956C9710E0E0E0EABBEBBB5F
:1002F000E0EBE7BBE0E0E8BBEFEFE4BBE0E0E5BB51
:10030000E1BBE2BBE7B9E5E8E6B9E0E0E0BFE0E584
:10031000EDB9E0E0EEB9EBB7E06CEBBFEAE0E5BFCA
:10032000E0E0E4BFE0ECEABFE0E0EBB9E8EDEAB919
:10033000E6E8E0BDE1E0E0BDE0EAE9B9A0E16CD1CA
:10034000E3E00E94DF07A0E6B0E054D1ECE6F0E085
:100350000E94E307E0E00E94EA070E94EE070E9485
:10036000EE070E94EE070E94EE070E94F6070E9429
:10037000F6070E94F6070E94F6070E94F6070E9401
:10038000F6070E94F6070E94F6070E94F6070E94F1
:10039000FE07AAE0B0E00E9408090E94FE07A2E35F
:1003A000B0E00E9408090E94FE07A2E3B0E00E94AC
:1003B0000809E0D0A0E00E94C3063201A62D0E94E9
:1003C000C306A0E018DF662777270E947E09E88F22
:1003D000F98F6A8F7B8FA88DB98D8A8D9B8DE0E018
:1003E000F0E060EA70E40E94080ADF01CB01E0E07F
:1003F000F0EC6FE774E40E94560AEC8BFD8B6E8B79
:100400007F8BAC89BD898E899F890E940208AC8947
:10041000BD898E899F890E94B8090E940908FE0142
:10042000FA93EA93ECE7F0E0FA93EA93EC89FD891A
:100430006E897F890E943F0B84E00E947606289691
:10044000E0E00E94DF07DE01C5D0EFE00E94DF0799
:10045000ADE8B0E0CFD0A4EFB1E00E940809EFE82A
:10046000F0E0FA93EA93EA89FB896C897D890E941E
:100470003F0B84E00E94A4062696BB2021F4E4EA08
:10048000F0E00E94E307849B38C0E3E00E94EA07A3
:10049000A9EBB0E0AFD0D9DE1E2FF0E0ED32A0E046
:1004A000FA0741F4E6ECF0E00E94E307F20131962E
:1004B0002F0122C0EB32A0E0FA0741F4E4EDF0E0B6
:1004C0000E94E307F20131972F0116C0E233A0E04A
:1004D000FA0719F4E2EEF0E009C0E133A0E0FA0710
:1004E00019F4E7E1F1E002C0ECE4F1E0FA93EA93F9
:1004F00080E00E94A406229608C03CD0E3E00E945F
:10050000EA07A2E6B1E076D055CF54CFFFCFAA9349
:10051000E5B3EF70AE2FE881E07FEA2BE5BB8DE01D
:100520008A95F1F7AA9A8DE08A95F1F7AA988DE05D
:100530008A95F1F70C94C906AA93A881E8DFE881AF
:10054000E295E883A881E3DF85E88A95F1F70C94CA
:10055000C906AA93E881F0E0E058FE4FE081A98146
:10056000AE0FEADFE981E0938401E881E093850141
:1005700022960895A2E00E940E08ACE0DDDFA1E023
:100580000E940E08E0E0E0938501E0938401089565
:10059000AA93A881AA3031F0E0918601A09184014C
:1005A000AE1768F0E0E0EA93A0918501AF5FA093F9
:1005B0008501CFDFA881AA3011F40C94C906E0911F
:1005C0008401EF5FE0938401A89AA881B5DFA89821
:1005D0000C94C906BA93AA931A93A981BA81ED9192
:1005E000A983BA831E2FE03019F0A12FD1DFF5CFF8
:1005F00018814AC0BA93AA931A93E981FA81319675
:10060000E983FA833197E4911E2FE03019F0A12F8E
:10061000BFDFF3CF188138C0AA93E4B3E06FE4BB27
:10062000A29AA09AA19AAA98A898A998E881E0937A
:100630008601E058E0938201E881E054E093830171
:10064000A4E1B0E00E9408090E9414080E94140866
:100650000E941408A0E25BDF88EC90E00197F1F7BC
:10066000A8E26ADFA4E068DFA5E866DFA6E064DF51
:1006700081DF0C94C906BA93AA93AA810E9449010A
:10068000A881B9810E941C0823960895BA93AA9361
:100690001A930A93AA81BB8112960E94260B309767
:1006A00029F1AA81BB8114960E94260B8F013097F5
:1006B00061F00230E0E01E0780F0F80131978F0111
:1006C000AA81BB811496ED93FC93AA81BB811296FB
:1006D0000E941C083197AC81A083AA81BB810E9433
:1006E000260BFF2312F00E941C0806C0AA81BB81C2
:1006F000EFEFFFEFED93FC931981088125960895A4
:100700000E942208E0E8EA83EFE3EB830E945C0B9F
:10071000EE85FF85EF3FAFEFFA0749F4E885F985ED
:10072000FA93EA93A0E7B1E00E94CB06C1C0EF3F85
:10073000AFE7FA0749F4E885F985FA93EA93A1E768
:10074000B1E00E94CB06B4C0AB85A73010F0E6E064
:10075000EB871B85E12F1150E03029F00E9429081A
:100760000E942E08F7CFEC85FD856E857F850E945F
:10077000560B31F430E00E9429080E942E0831C047
:100780003B850E94330809F008F40DC00E94290837
:100790000E942E080E94330828F00E943E080E9402
:1007A0004308F8CF0FC00E94330840F40E943E086F
:1007B0000E9402080E944F083150F5CF0E9429087C
:1007C0000E942E08EC85FD856E857F850E94540869
:1007D0000E944F080E94330820F00E943E080E94A9
:1007E000430810E0EB85E117B8F1AC81BD818E8143
:1007F0009F810E945B080E945408DF01CB010E9488
:1008000022070E942E08EC81FD816E817F810E946B
:100810003E080E94560A0E9445090E2F0E94620857
:100820000E946908FF27662777270E947E09AC810E
:10083000BD818E819F810E94080A0E943E080E940D
:100840006E080E944F08E12F1F5FE03059F60E94AA
:100850006208EEE2EC93C6CF0E9473083197AA8536
:10086000A08330302CF43195A885B985EDE203C022
:10087000A885B985EBE2EC930E9473080E94730887
:100880003197BF01A32FEAE00E94E00AE05DDB019F
:10089000EC930E9473083197BF01A32FEAE00E94F6
:1008A0000A0BE05DDB01EC93A885B985E0E0EC93F1
:1008B0000E94630B60960895BA93AA93EF9761978D
:1008C0000E945A0B10E0FE01E85AFF4F0190F081A0
:1008D000E02DE887F987FE01EA5AFF4F0190F08189
:1008E000E02DEE83FF83AE81BF81E0E0F0E0ED9389
:1008F000FC93DE01A45ABF4F0E941C083197E4917B
:100900002E2FE03009F4E9C1E12FE03039F425322F
:1009100011F411E002C00E947908DEC1E130C1F497
:10092000253219F40E947908D6C112E0E0E0ED8B7F
:1009300000E02D3211F401E0CFC12B3219F4EBE2CB
:10094000ED8BCAC1203219F4E0E2ED8BC5C102C0C3
:10095000E23039F450E013E0203311F40068BCC1F8
:1009600002C0E33091F4203310F02A3308F007C0BE
:10097000AAE05A9F502DE22FE0535E0FADC140E038
:100980002E3211F414E0A8C10FC0E43099F42033E2
:1009900010F02A3308F008C00062AAE04A9F402DF8
:1009A000E22FE0534E0F98C12C3619F4026015E087
:1009B00093C103C0E53009F08FC1E22FE33659F44B
:1009C0000E9480080E9487080E948008A481AA9340
:1009D0000E948E0880C1E53411F0E53609F403C0A9
:1009E000E63609F048C0FE017696EE87FF870E9442
:1009F00094080E942A0B0E949B080E94A008AD85C3
:100A0000AA2332F0AD89AB3259F0A03281F017C081
:100A10000E94A2080E9412090E949B08EDE2ED8B41
:100A200007FF05C0ED89EA930E948E0808C0EE8595
:100A3000FF853196EE87FF873197AD89A08305FF4B
:100A400046E0263651F40E94A2080E943F0B4A93CA
:100A5000AB89BC890E94390709C00E94A2080E9484
:100A60003F0B4A932A93AC89BD894ADEFE017696F4
:100A70000E94A7081EC0E33739F40E94A0080E9414
:100A8000AF080E94A7080EC0E037C1F40E94A0087A
:100A90000E94AF08EE87FF87AE85BF850E94E406FF
:100AA0001E2F08600F77403011F0411708F001C089
:100AB000142F40E0E0E0EC8B30E06DC0E43611F044
:100AC000E93611F4046002C0E537A1F4EAE0EC8BEA
:100AD00001FF08C0E0E0FAEC6AE97BE30E94090844
:100AE0001AE022C0E0E1F7E260E070E00E9409084D
:100AF00015E01AC0E83511F4086003C0E83709F0C2
:100B0000EAC0E0E1EC8B01FF08C0E0E0F0E060E06B
:100B100070E10E94090818E007C0E0E0F0E160E041
:100B200070E00E94090814E0403011F00F7701C016
:100B300041E001FF08C00E94A0080E94940814969A
:100B40000E942A0B0FC002FF07C00E94A0080E944B
:100B5000AF080E94CD0A06C00E94A0080E94AF08FC
:100B600066277727EA87FB876C877D8702FF12C09D
:100B7000AD85AA2342F40E94A2080E94BF0A0E94E7
:100B80009B08EDE2ED8BED89E03019F01F5F4F5FC0
:100B900001C00B7F342F00FD14C0151710F435175A
:100BA00008F00FC007FF08C002FF04C00B7F2D89AB
:100BB000115001C020E301C020E20E947908515089
:100BC000ECCF141790F4006102FF06C00E94B40835
:100BD00009F0515011504150E0E3EA930E948E0811
:100BE000503009F051504150ECCF312FEC89E030BA
:100BF000B9F43030A1F003FF06C0EE85FF852591E2
:100C0000EE87FF8705C0AE85BF852D91AE87BF8774
:100C10000E947908503009F051503150EACF51C04C
:100C20000E94C6080E94E50A2E2F2A3030F003FFEA
:100C300002C0295C01C0295A01C0205D04FD21C009
:100C4000213360F4A889B9898A899B89A130E0E0C1
:100C5000BE07E0E08E07E0E09E0709F40BC04317F3
:100C600040F4531710F000FF01C010C020E207FF4E
:100C700008C020E3006102FF04C00E94B40809F02C
:100C800051500E947908503009F0515031500E9463
:100C9000C6080E94160B0E949B08EC89A889B98996
:100CA0008A899B89FF27662777270E94E50A0E9489
:100CB0000908E889F9896A897B890E94560B09F03D
:100CC000AFCF00FF08C0503031F05150E0E2EA935E
:100CD0000E948E08F8CF10E00CCEAE81BF810E943A
:100CE000260B0E94610BEF966F960895FF92F82EE7
:100CF00026970E945C0B0E94CF08309719F4EFEF03
:100D0000FFEF1DC0DE0116960E94BB0A8D010E94F6
:100D1000CF08EE83FF83E0E0E887E987DE011A96DB
:100D20000E94D608E6E4F3E0FA93EA93DE011A960D
:100D3000C3DD9F01AE81BF81E0E0EC93F9010E9429
:100D4000630B2A96FF900895FF92F82E26971A9328
:100D50000A93DE0114960E94BB0A8D01E0E0EC8349
:100D6000ED83EE83EF83DE0118960E94D608EBE355
:100D7000F3E0FA93EA93DE0118969EDD198108816B
:100D80002896FF900895AA93E881EFB9779BFECF4C
:100D9000EFB121960895BA93AA93E991F991A99197
:100DA000B991CD0105900D920020E1F7FC01089565
:100DB000BA93AA93A991B991EE27FF276D91662363
:100DC00011F03196FBCF0895BA93AA93AA27BB27B7
:100DD000E991F9910590002011F01196FBCFFD01EA
:100DE00008950E94440B7B816A81F981E88177FB39
:100DF000770F67FD7160972F9E5781F078F09831DB
:100E000090F4AA27BB27882708948795B795A795BC
:100E10009A95D1F7EA23FB23682305C0E894772746
:100E2000EE27FF2766276F77769508F4606877F9D5
:100E3000A991B99189919991EA17FB0768077907F8
:100E400097FB08950E94440B0E94350B0E94F10607
:100E50000E943A0B19F40E94300B09C0E6F70E9479
:100E6000300BA0E0B0E080E89FE30E94B109249637
:100E70000895E8D0E0E0EA83EFE3EB831A930A9366
:100E8000EB85FC85EF3FAFEFFA0731F498D1A8E787
:100E9000B1E00E94CB068AC0EF3FAFE7FA0731F41A
:100EA0008ED1A9E7B1E00E94CB0680C0AC85AA2311
:100EB00052F4E985FA856B857C850E94120984D1FC
:100EC00088D1EDE2EC93A885A73010F0E6E0E88742
:100ED0001885E12F1150E03021F082D1ECD085D17E
:100EE000F8CF88D10E94B8096FD110E0E0E0F0E0BF
:100EF00060E87FE37AD17ED10E949B0A68F070D1CE
:100F000081D073D11F5F173230F059D1ADE7B1E016
:100F10000E94CB064BC0EFCF103021F45AD1E0E352
:100F2000EC9320C0E12F1150E030E1F059D1C3D053
:100F3000BBD0DF01CB010E94220757D15BD10E94B9
:100F4000560A0E9445090E2F44D1C3D0F0E048D183
:100F50000E94CD0A0E947E090E94080A54D1BED088
:100F600033D1E0CFE885E030E9F033D1EEE2EC9325
:100F7000E885E150E887EF5FA9F045D143D024D15F
:100F8000E985FA856B857C850E9445090E2F21D164
:100F9000A0D0F0E038D10E94CD0A0E947E099ED0F8
:100FA00013D1E6CFAE81BF81E0E0EC9319810881D7
:100FB0002D960895EA93FA93EFB7EA930895EA938A
:100FC000A0E00C94A902FA93EA9380E00E94A406A0
:100FD00022960895EA93A1E00C94A902AAE7B0E052
:100FE0000E94FA02A4EFB1E00C940809AAE7B0E06D
:100FF0000E94FA02A4E6B0E00C940809AAE7B0E067
:101000000C94FA02E0E0F0E060E271E40E94080A69
:101010000895E88BF98B6A8B7B8B08950E949C0264
:10102000A3E0B0E00C940809A0E30E94870288ECDA
:1010300090E00197F1F70895ED91FD913196FE93BF
:10104000EE930895BA93AA932497E0E0E883E983A6
:101050000895AC81BD818E819F81D4CFEC83FD83C7
:101060006E837F830895EC81FD816E817F81AC85E5
:10107000BD858E859F850E949B0A0895AC85BD85A0
:101080008E859F850895EDECFCEC6CEC7DE30E9471
:10109000080AEC87FD876E877F873F5F0895EC879E
:1010A000FD876E877F870895A0E0B0E080E09FE332
:1010B0000E94B8090895EDECFCEC6CEC7DE30E9415
:1010C000080A0895A885B9851196A887B987119748
:1010D0000895E02FE05DEC93E02F08950E94490B06
:1010E0000E94B1090895E885F9853196E887F98766
:1010F00008952A93AF81B885E985FA850995089501
:10110000FE01E65AFF4F0190F081E02D08953497DB
:10111000DE01A65ABF4FED93FC930895AF81B885C9
:10112000E985FA8509950895DE01A65ABF4F0D900D
:10113000BC91A02D0895EA87FB876C877D87089571
:10114000DFDFE5CFEA85FB856C857D850895EE8739
:10115000FF87AE85BF850E94D8061E2F0895E4DF65
:1011600014960E94260B08950B7FED89EA93DE0109
:10117000A95ABF4F0D90BC91A02DFE01E75AFF4F19
:101180000190F081E02D099550300895E889F989A2
:101190006A897B89AA85BB858C859D850895DE013A
:1011A0001C960E94BB0A0E94260B08950E94BB0A4F
:1011B0000E94260BFA93EA931A930A930895EE81FC
:1011C000FF81FA93EA930895E987FA876B877C8712
:1011D0000895AE81BF811196AE83BF8311970895A4
:1011E000AA81BB818C819D810895EA83FB836C83F6
:1011F0007D830895EA81FB816C817D81A985BA8513
:101200008B859C850895A985BA858B859C850895D5
:10121000109639F080ED97E00197F1F7A8951197B6
:10122000C9F7089530976040704009F070580895EC
:10123000552342F4503811F4E0FF04C03196691F81
:10124000791F6BF050E8572711F45F93CFC05F3FD1
:1012500031F0660F000C57956795752F08955F93D1
:1012600000200AF0CFC0C8C050E8192E1522880F00
:10127000991F9527550F879550E8072E0522660F71
:10128000771F7527550F67950895689401C0E894F6
:101290005F93F2DF703818F07F3F08F4A7C056E183
:1012A000571BAAF4519558300EF4593030F0EFEF37
:1012B000FFEF6FEF7FE777F91AC077275523B9F073
:1012C000EE0FFF1F661F771F5A95D1F710C07727C3
:1012D000583028F0EF2FF62F672F5850F9CF5523AD
:1012E00031F076956795F795E7955A95D1F70020F7
:1012F0000AF445D15F910895689401C0E89430974D
:1013000060407040B1F0002426F0772312F400947E
:1013100036D1172E7EE1112032F07A95EE0FFF1FA5
:10132000661F111CF9CFEF2FF62F612D5F938ADF17
:101330005F9108954F93AF01FD01DA01AB01BC014C
:10134000CA01402D012C142E4F910895EA0FFB1F66
:10135000681F0895E095F0956095EF5FFF4F6F4F20
:1013600008955F9381DF903871F150E8152604C02D
:101370005F937ADF903839F1703821F1572F591B7C
:101380002BF112F4D7DFFACF583118F0AA27BB2778
:101390008827583028F0AB2FB82F88275850F9CF1E
:1013A000552329F08695B795A7955A95D9F7502DCD
:1013B000512572F0CBDF38F46795F795E795739573
:1013C00013F420C0B7DF3EDF5F910895D8F7FBCF5D
:1013D000EA1BFB0B680B51F010F40094BBDF662393
:1013E00092F3EE0FFF1F661F7A95CBF7EE27FF27CC
:1013F000662777275F910895EFEFFFEF6FE77FEFA5
:101400005F910895EFEFFFEF6FE77FE75F9108953A
:101410005F932ADF703851F3903841F30124089428
:10142000791F23F41CF300203AF3ECCF0F921F93A3
:101430002F933F934F93112722279927689FA0014D
:101440008F9F302D410D591F6B9F300D411D591F2E
:101450008E9F27D0BF9F25D06A9F23D0BE9F1DD0CF
:10146000AF9F1BD0AE9F110D291F391F491F591F58
:10147000E32FF42F652F522F4F913F912F911F9102
:101480000F9066232AF0550FEE1FFF1F661F02C044
:1014900073954BF2CDDE5F910895100D211D391F1C
:1014A00002C0200D311D491F591F08955F93DCDED6
:1014B000703821F411200AF49FCFA4CF903809F49A
:1014C00095CF01240894970B1BF4D4F30020F3CF9D
:1014D000792F1F932F933F934F9311241127222786
:1014E00033274427552790E2AE17BF0786074107E9
:1014F00030F0AE1BBF0B860B410B089401C08894E3
:10150000551F221F331F111CAA1FBB1F881F441FFA
:101510009A9551F7F901612D4F913F912F911F91AC
:10152000662332F0550FEE1FFF1F661F7A9543F2B8
:101530007FDE5F91089599239AF0772342F0971701
:1015400048F029F4AE17BF07860720F031F09894D1
:101550008894089598940894089518948894089508
:101560007723C2F7971798F3A9F7EA17FB076807DD
:1015700088F399F3ECCF0024AF0DB01D0895F095DA
:1015800060957095E195FF4F6F4F7F4F0895FE2F47
:10159000FF0FFF0B6F2F7F2F08956F2F660F660BC6
:1015A000762F0895002498E0AA0F001C0E1A10F45C
:1015B0000E0E01C0A1609A95B9F7EA2FA02D0895EB
:1015C00039D0F0DF0EF4E19508953F934F935F9388
:1015D000002411244427552730E2AA0FBB1F881F7F
:1015E000991F001C111C441F551F0E1A1F0A460B81
:1015F000570B28F40E0E1F1E461F571F01C0A16077
:101600003A9559F7FD01BC01D001CA015F914F9194
:101610003F910895E894A7FF02C0A1956894E7FD63
:10162000E195C0DFEA2F0EF4E1950895CEDFFD01CC
:10163000BC010895E894E7FF02C0E1956894A7FF14
:1016400004C0A19500F8039400FA0895ED91FC916F
:1016500011970895ED91FD916D917C9113970895E7
:10166000E881F9816A817B810895A881B9818A81A5
:101670009B810895E883F9836A837B8308957A9335
:101680006A93FA93EA9308959A938A93BA93AA93E2
:101690000895182E862F612D192E972F712D1B2E30
:1016A000BF2FF12D1A2EAE2FE12D089530976040F7
:1016B000704008955A934A933A932A931A930A933F
:1016C00008955D814C813B812A81198108810895AB
:00000001FF
