:100000000C9440000C9400000C9400000C94000030
:100010000C9400000C9400000C9400000C94000060
:100020000C9400000C9400000C9400000C94000050
:100030000C9400000C9400000C9400000C94000040
:100040000C9400000C9400000C9400000C94000030
:100050000C9400001027E80364000A00010000105F
:10006000000110000100566F6C746167653D253218
:100070002E326600560080C002006001760000004B
:10008000F894EE27ECBBF1E0FBBFEBBFE5BF8DE0E2
:10009000A2E0BB27ED938A95E9F780E094E0A0E623
:1000A000ED930197E9F7E8E7F0E0859195910097E6
:1000B00061F0A591B59105901590BF01F0010590F3
:1000C0000D920197E1F7FB01F0CFEFE5EDBFE4E022
:1000D000EEBFC0E6D1E00C947B00AA93E881E7B9BB
:1000E0008BE18A95F1F7369A349BFECF349AE4B1CE
:1000F000F5B10C944C036C97E0E0EABBEBBBE0EB92
:10010000E7BBE0E0E8BBE4BBE5BBE1BBE2BBE3BFD0
:10011000E2BFECBFEFBDEEBDEDBDECBDE7BDE6BDA2
:10012000EBBDEABDE9BDE8BDE2BDE5BDE4BDE3BDB3
:10013000E9BFE5BFE4BFEAB9E0E8E8B9E0E0E7B964
:10014000E3E8E6B9E0E0E0BFE0E5EDB9E0E0EEB914
:10015000E6BFA0E10E942003A0E0BFDF662777276B
:100160000E94DA03E88FF98F6A8F7B8FA88DB98D93
:100170008A8D9B8DE0E0F0E060EA70E40E945D040F
:10018000DF01CB01E0E0F0EC6FE774E40E94AB0428
:10019000EC8BFD8B6E8B7F8BAC89BD898E899F89A3
:1001A000E0E0F0E060E271E40E945D04AC89BD89AA
:1001B0008E899F890E940D04E88BF98B6A8B7B8B5B
:1001C000FE01FA93EA93E6E6F0E0FA93EA93EC890B
:1001D000FD896E897F890E940D0584E00E947C0262
:1001E0002896E0E0EA93A0E00E94D002DE010E949F
:1001F000FE02EDE0EA93A0E00E94D002A4E7B0E0A6
:100200000E940D03A4EFB1E00E94A103A5CFFFCF90
:10021000BA93AA931A930A93AA81BB8112960E9459
:100220000505309759F1AA81BB8114960E940505F6
:100230008F01309761F00230E0E01E0798F0F8017E
:1002400031978F01AA81BB811496ED93FC93AA810B
:10025000BB811296ED91FD913196FE93EE9331970D
:10026000AC81A083AA81BB810E940505FF232AF0EF
:10027000ED91FD913196FE93EE9306C0AA81BB816C
:10028000EFEFFFEFED93FC93198108812596089518
:10029000BA93AA9326970E94120510E0AC85BD85FB
:1002A000E0E0F0E0ED93FC93EA89FB893196EA8B7C
:1002B000FB8B3197E4912E2FE03009F415C1E12F2B
:1002C000E03039F4253211F411E002C00E946703D6
:1002D0000AC1E130A9F4253219F40E94670302C172
:1002E00012E040E000E02D3211F401E0FCC02B32BE
:1002F00011F44BE2F8C0203211F440E2F4C002C025
:10030000E23039F450E013E0203311F40068EBC020
:1003100003C0E33009F0E7C0203310F02A3308F0BF
:1003200007C0AAE05A9F502DE22FE0535E0FDBC0BA
:10033000E22FE33649F40E946E03E889F989A4812B
:10034000AA930E947403CEC0E33741F40E946E0367
:100350000E947A030E944E031E2F0AC0E03761F408
:100360000E946E030E947A030E945A031E2F0860A7
:1003700002600F7730E034C0E43611F0E93611F452
:10038000046002C0E53731F4E4E5F0E0EE83FF837A
:1003900015E00CC0E83511F4086003C0E83709F037
:1003A000A1C0EEE5F0E0EE83FF8314E002FF14C08D
:1003B0000E946E030E948403AB85AA233AF4EA8567
:1003C000FB850E94F404EA87FB874DE2403011F080
:1003D0001F5F01C00B7F04C00E946E030E94840354
:1003E00000FD11C0151778F407FF08C002FF04C014
:1003F0000B7F242F115001C020E301C020E20E9496
:1004000067035150EFCF312F01FF17C03030A1F0FB
:1004100003FF06C0EE81FF812591EE83FF8305C0B7
:10042000AE81BF812D91AE83BF830E9467035030A0
:1004300009F051503150EACF4BC020E3EE81FF81EB
:100440000E940905E887F987EE81FF813296EE83E5
:10045000FF83E885F985AA85BB85AE17BF0750F0F5
:100460002F5FA885B985EA85FB85EA1BFB0BEA8728
:10047000FB87EFCF2A3328F003FF02C0295F01C0BA
:10048000295D04FD1AC0213320F4A885B985119790
:1004900009F409C0531710F000FF01C013C020E297
:1004A00007FF0BC020E3006102FF07C00B7F4A93E8
:1004B0000E947403503009F051500E94670350307D
:1004C00009F051503150A885B985129708F0B5CF81
:1004D00000FF08C0503031F05150E0E2EA930E9432
:1004E0007403F8CF10E0E0CEAC85BD850E94050511
:1004F0000E94190564960895FF92F82E26970E948F
:1005000014050E948C03309719F4EFEFFFEF23C01E
:10051000DE0116960E94F0048D010E948C03EE838A
:10052000FF83E0E0E887E987DE011A960E94F00485
:100530000E940505FA93EA931A930A93E8E0F1E022
:10054000FA93EA93DE011A96A3DE9F01AE81BF8182
:10055000E0E0EC93F9010E941B052A96FF900895B4
:10056000AA93E5B3EF70AE2FE881E07FEA2BE5BBFD
:100570008DE08A95F1F7AA9A8DE08A95F1F7AA980D
:100580008DE08A95F1F788C0AA93A881E9DFE88118
:10059000E295E883A881E4DF85E88A95F1F77CC0DD
:1005A000AA93E881F0E0E05AFE4FE081A981AE0F06
:1005B000EBDF5980488022960895A2E00E949303C1
:1005C000ACE0E2DFA1E00E949303E0E04E2E5E2E5D
:1005D0000895AA93A881AA3011F0571448F0E0E0DA
:1005E000EA934394A42DDCDFA881AA3009F454C017
:1005F0005394A89AA881C8DFA8984EC0BA93AA932A
:100600001A93A981BA81ED91A983BA831E2FE03094
:1006100019F0A12FDEDFF5CF10C0BA93AA931A9379
:10062000E981FA813196E983FA833197E4911E2FAB
:10063000E03019F0A12FCDDFF3CF18812396089574
:10064000AA93E4B3E06FE4BBA29AA09AA19AAA98F5
:10065000A898A9987880E881E058E0936201E88141
:10066000E054E0936301A4E1B0E00E94A1030E9482
:1006700099030E9499030E949903A0E271DF88EC1C
:1006800090E00197F1F7A8E27FDFA4E07DDFA5E825
:100690007BDFA6E079DF91DF21960895BA93AA93D4
:1006A000A991B991EE27FF276D91662311F031963C
:1006B000FBCF0895BA93AA93AA27BB27E991F99192
:1006C0000590002011F01196FBCFFD0108952A93AB
:1006D000AD85BE85EF85F88909950895E889F98982
:1006E0003497E88BF98B0895AD85BE85EF85F88941
:1006F00009950895A889B98914960E940505EE8385
:10070000FF83AE81BF810895A889B98914960E949C
:100710000505EA87FB870895DE011C960E94F00418
:100720000E94050508950E94C402A3E0B0E00C9465
:10073000A103A0E30E94B00288EC90E00197F1F7DA
:100740000895109639F080ED97E00197F1F7A8959C
:100750001197C9F70895552342F4503811F4E0FF7A
:1007600004C03196691F791F6BF050E8572711F4C8
:100770005F9391C05F3F31F0660F000C579567950E
:10078000752F08955F9300200AF091C08AC050E849
:10079000192E1522880F991F9527550F879550E818
:1007A000072E0522660F771F7527550F6795089549
:1007B000689401C0E894309760407040B1F0002424
:1007C00026F0772312F4009413D1172E7EE1112026
:1007D00032F07A95EE0FFF1F661F111CF9CFEF2F35
:1007E000F62F612D5F93C1DF5F9108954F93AF01A5
:1007F000FD01DA01AB01BC01CA01402D012C142E10
:100800004F910895EA0FFB1F681F0895E095F0953A
:100810006095EF5FFF4F6F4F08955F93B8DF90389B
:1008200039F1703821F1572F591B2BF112F4DEDF0B
:10083000FACF583118F0AA27BB278827583028F05C
:10084000AB2FB82F88275850F9CF552329F086951C
:10085000B795A7955A95D9F7502D512572F0D2DF4B
:1008600038F46795F795E795739513F420C0BEDFCC
:100870007CDF5F910895D8F7FBCFEA1BFB0B680B79
:1008800051F010F40094C2DF662392F3EE0FFF1FC5
:10089000661F7A95CBF7EE27FF27662777275F91AC
:1008A0000895EFEFFFEF6FE77FEF5F910895EFEFB0
:1008B000FFEF6FE77FE75F9108955F9368DF703820
:1008C00051F3903841F301240894791F23F41CF369
:1008D00000203AF3ECCF0F921F932F933F934F9347
:1008E000112722279927689FA0018F9F302D410D46
:1008F000591F6B9F300D411D591F8E9F27D0BF9FE1
:1009000025D06A9F23D0BE9F1DD0AF9F1BD0AE9F26
:10091000110D291F391F491F591FE32FF42F652F70
:10092000522F4F913F912F911F910F9066232AF0E4
:10093000550FEE1FFF1F661F02C073954BF20BDFB2
:100940005F910895100D211D391F02C0200D311D2A
:10095000491F591F08955F931ADF703821F4112041
:100960000AF49FCFA4CF903809F495CF01240894BE
:10097000970B1BF4D4F30020F3CF792F1F932F9301
:100980003F934F93112411272227332744275527BC
:1009900090E2AE17BF078607410730F0AE1BBF0BD2
:1009A000860B410B089401C08894551F221F331FEA
:1009B000111CAA1FBB1F881F441F9A9551F7F901EC
:1009C000612D4F913F912F911F91662332F0550F6A
:1009D000EE1FFF1F661F7A9543F2BDDE5F910895FB
:1009E0000024AF0DB01D0895F195E195F0400895F4
:1009F000F09560957095E195FF4F6F4F7F4F08958B
:100A00006F2F660F660B762F0895ED91FC9111976D
:100A100008950590F491E02D08957A936A93FA93DE
:100A2000EA9308955A934A933A932A931A930A930E
:100A300008955D814C813B812A8119810881089547
:00000001FF
